{
  "contractName": "CampaignFactory",
  "abi": [
    {
      "inputs": [
        {
          "internalType": "uint256",
          "name": "",
          "type": "uint256"
        }
      ],
      "name": "deployedCampaigns",
      "outputs": [
        {
          "internalType": "address",
          "name": "",
          "type": "address"
        }
      ],
      "stateMutability": "view",
      "type": "function",
      "constant": true
    },
    {
      "inputs": [
        {
          "internalType": "string",
          "name": "name",
          "type": "string"
        },
        {
          "internalType": "string",
          "name": "description",
          "type": "string"
        },
        {
          "internalType": "string",
          "name": "url",
          "type": "string"
        },
        {
          "internalType": "uint256",
          "name": "target",
          "type": "uint256"
        },
        {
          "internalType": "uint256",
          "name": "minimum",
          "type": "uint256"
        }
      ],
      "name": "createCampaign",
      "outputs": [],
      "stateMutability": "nonpayable",
      "type": "function"
    },
    {
      "inputs": [],
      "name": "getDeployedCampaigns",
      "outputs": [
        {
          "internalType": "address[]",
          "name": "",
          "type": "address[]"
        }
      ],
      "stateMutability": "view",
      "type": "function",
      "constant": true
    }
  ],
  "bytecode": "0x608060405234801561001057600080fd5b50612b0d806100206000396000f3fe60806040523480156200001157600080fd5b5060043610620000465760003560e01c8063339d50a5146200004b5780634acb9d4f1462000081578063980f2e6614620000a3575b600080fd5b620000696004803603810190620000639190620002a2565b620000c3565b60405162000078919062000319565b60405180910390f35b6200008b62000103565b6040516200009a919062000404565b60405180910390f35b620000c16004803603810190620000bb91906200058a565b62000193565b005b60008181548110620000d457600080fd5b906000526020600020016000915054906101000a900473ffffffffffffffffffffffffffffffffffffffff1681565b606060008054806020026020016040519081016040528092919081815260200182805480156200018957602002820191906000526020600020905b8160009054906101000a900473ffffffffffffffffffffffffffffffffffffffff1673ffffffffffffffffffffffffffffffffffffffff16815260200190600101908083116200013e575b5050505050905090565b6000858585858533604051620001a99062000245565b620001ba9695949392919062000709565b604051809103906000f080158015620001d7573d6000803e3d6000fd5b5090506000819080600181540180825580915050600190039060005260206000200160009091909190916101000a81548173ffffffffffffffffffffffffffffffffffffffff021916908373ffffffffffffffffffffffffffffffffffffffff160217905550505050505050565b61234c806200078c83390190565b6000604051905090565b600080fd5b600080fd5b6000819050919050565b6200027c8162000267565b81146200028857600080fd5b50565b6000813590506200029c8162000271565b92915050565b600060208284031215620002bb57620002ba6200025d565b5b6000620002cb848285016200028b565b91505092915050565b600073ffffffffffffffffffffffffffffffffffffffff82169050919050565b60006200030182620002d4565b9050919050565b6200031381620002f4565b82525050565b600060208201905062000330600083018462000308565b92915050565b600081519050919050565b600082825260208201905092915050565b6000819050602082019050919050565b6200036d81620002f4565b82525050565b600062000381838362000362565b60208301905092915050565b6000602082019050919050565b6000620003a78262000336565b620003b3818562000341565b9350620003c08362000352565b8060005b83811015620003f7578151620003db888262000373565b9750620003e8836200038d565b925050600181019050620003c4565b5085935050505092915050565b600060208201905081810360008301526200042081846200039a565b905092915050565b600080fd5b600080fd5b6000601f19601f8301169050919050565b7f4e487b7100000000000000000000000000000000000000000000000000000000600052604160045260246000fd5b6200047d8262000432565b810181811067ffffffffffffffff821117156200049f576200049e62000443565b5b80604052505050565b6000620004b462000253565b9050620004c2828262000472565b919050565b600067ffffffffffffffff821115620004e557620004e462000443565b5b620004f08262000432565b9050602081019050919050565b82818337600083830152505050565b6000620005236200051d84620004c7565b620004a8565b9050828152602081018484840111156200054257620005416200042d565b5b6200054f848285620004fd565b509392505050565b600082601f8301126200056f576200056e62000428565b5b8135620005818482602086016200050c565b91505092915050565b600080600080600060a08688031215620005a957620005a86200025d565b5b600086013567ffffffffffffffff811115620005ca57620005c962000262565b5b620005d88882890162000557565b955050602086013567ffffffffffffffff811115620005fc57620005fb62000262565b5b6200060a8882890162000557565b945050604086013567ffffffffffffffff8111156200062e576200062d62000262565b5b6200063c8882890162000557565b93505060606200064f888289016200028b565b925050608062000662888289016200028b565b9150509295509295909350565b600081519050919050565b600082825260208201905092915050565b60005b83811015620006ab5780820151818401526020810190506200068e565b60008484015250505050565b6000620006c4826200066f565b620006d081856200067a565b9350620006e28185602086016200068b565b620006ed8162000432565b840191505092915050565b620007038162000267565b82525050565b600060c0820190508181036000830152620007258189620006b7565b905081810360208301526200073b8188620006b7565b90508181036040830152620007518187620006b7565b9050620007626060830186620006f8565b620007716080830185620006f8565b6200078060a083018462000308565b97965050505050505056fe60806040523480156200001157600080fd5b506040516200234c3803806200234c8339818101604052810190620000379190620002fb565b856006908162000048919062000635565b5084600790816200005a919062000635565b5083600890816200006c919062000635565b508260098190555080600260006101000a81548173ffffffffffffffffffffffffffffffffffffffff021916908373ffffffffffffffffffffffffffffffffffffffff160217905550816003819055505050505050506200071c565b6000604051905090565b600080fd5b600080fd5b600080fd5b600080fd5b6000601f19601f8301169050919050565b7f4e487b7100000000000000000000000000000000000000000000000000000000600052604160045260246000fd5b6200013182620000e6565b810181811067ffffffffffffffff82111715620001535762000152620000f7565b5b80604052505050565b600062000168620000c8565b905062000176828262000126565b919050565b600067ffffffffffffffff821115620001995762000198620000f7565b5b620001a482620000e6565b9050602081019050919050565b60005b83811015620001d1578082015181840152602081019050620001b4565b60008484015250505050565b6000620001f4620001ee846200017b565b6200015c565b905082815260208101848484011115620002135762000212620000e1565b5b62000220848285620001b1565b509392505050565b600082601f83011262000240576200023f620000dc565b5b815162000252848260208601620001dd565b91505092915050565b6000819050919050565b62000270816200025b565b81146200027c57600080fd5b50565b600081519050620002908162000265565b92915050565b600073ffffffffffffffffffffffffffffffffffffffff82169050919050565b6000620002c38262000296565b9050919050565b620002d581620002b6565b8114620002e157600080fd5b50565b600081519050620002f581620002ca565b92915050565b60008060008060008060c087890312156200031b576200031a620000d2565b5b600087015167ffffffffffffffff8111156200033c576200033b620000d7565b5b6200034a89828a0162000228565b965050602087015167ffffffffffffffff8111156200036e576200036d620000d7565b5b6200037c89828a0162000228565b955050604087015167ffffffffffffffff811115620003a0576200039f620000d7565b5b620003ae89828a0162000228565b9450506060620003c189828a016200027f565b9350506080620003d489828a016200027f565b92505060a0620003e789828a01620002e4565b9150509295509295509295565b600081519050919050565b7f4e487b7100000000000000000000000000000000000000000000000000000000600052602260045260246000fd5b600060028204905060018216806200044757607f821691505b6020821081036200045d576200045c620003ff565b5b50919050565b60008190508160005260206000209050919050565b60006020601f8301049050919050565b600082821b905092915050565b600060088302620004c77fffffffffffffffffffffffffffffffffffffffffffffffffffffffffffffffff8262000488565b620004d3868362000488565b95508019841693508086168417925050509392505050565b6000819050919050565b600062000516620005106200050a846200025b565b620004eb565b6200025b565b9050919050565b6000819050919050565b6200053283620004f5565b6200054a62000541826200051d565b84845462000495565b825550505050565b600090565b6200056162000552565b6200056e81848462000527565b505050565b5b8181101562000596576200058a60008262000557565b60018101905062000574565b5050565b601f821115620005e557620005af8162000463565b620005ba8462000478565b81016020851015620005ca578190505b620005e2620005d98562000478565b83018262000573565b50505b505050565b600082821c905092915050565b60006200060a60001984600802620005ea565b1980831691505092915050565b6000620006258383620005f7565b9150826002028217905092915050565b6200064082620003f4565b67ffffffffffffffff8111156200065c576200065b620000f7565b5b6200066882546200042e565b620006758282856200059a565b600060209050601f831160018114620006ad576000841562000698578287015190505b620006a4858262000617565b86555062000714565b601f198416620006bd8662000463565b60005b82811015620006e757848901518255600182019150602085019450602081019050620006c0565b8683101562000707578489015162000703601f891682620005f7565b8355505b6001600288020188555050505b505050505050565b611c20806200072c6000396000f3fe6080604052600436106100e85760003560e01c80637284e4161161008a578063c58343ef11610059578063c58343ef146102dc578063d4b839921461031d578063d7bb99ba14610348578063d7d1bbdb14610352576100e8565b80637284e4161461023257806382fde0931461025d5780638a9cfd5514610288578063937e09b1146102b1576100e8565b80633410452a116100c65780633410452a1461017e5780634051ddac146101a9578063481c6a75146101dc5780635600f04f14610207576100e8565b806303441006146100ed57806306fdde03146101165780630a14439114610141575b600080fd5b3480156100f957600080fd5b50610114600480360381019061010f9190610f16565b61037b565b005b34801561012257600080fd5b5061012b610558565b6040516101389190610fd3565b60405180910390f35b34801561014d57600080fd5b5061016860048036038101906101639190611053565b6105e6565b604051610175919061109b565b60405180910390f35b34801561018a57600080fd5b50610193610606565b6040516101a091906110c5565b60405180910390f35b3480156101b557600080fd5b506101be61060f565b6040516101d3999897969594939291906110ef565b60405180910390f35b3480156101e857600080fd5b506101f1610814565b6040516101fe9190611191565b60405180910390f35b34801561021357600080fd5b5061021c61083a565b6040516102299190610fd3565b60405180910390f35b34801561023e57600080fd5b506102476108c8565b6040516102549190610fd3565b60405180910390f35b34801561026957600080fd5b50610272610956565b60405161027f91906110c5565b60405180910390f35b34801561029457600080fd5b506102af60048036038101906102aa91906112e1565b61095c565b005b3480156102bd57600080fd5b506102c6610b30565b6040516102d391906110c5565b60405180910390f35b3480156102e857600080fd5b5061030360048036038101906102fe9190610f16565b610b36565b604051610314959493929190611371565b60405180910390f35b34801561032957600080fd5b50610332610c7e565b60405161033f91906110c5565b60405180910390f35b610350610c84565b005b34801561035e57600080fd5b5061037960048036038101906103749190610f16565b610d22565b005b600260009054906101000a900473ffffffffffffffffffffffffffffffffffffffff1673ffffffffffffffffffffffffffffffffffffffff163373ffffffffffffffffffffffffffffffffffffffff161461040b576040517f08c379a00000000000000000000000000000000000000000000000000000000081526004016104029061143d565b60405180910390fd5b6000600160008381526020019081526020016000209050600260055461043191906114bb565b816003015411610476576040517f08c379a000000000000000000000000000000000000000000000000000000000815260040161046d9061155e565b60405180910390fd5b8060020160149054906101000a900460ff16156104c8576040517f08c379a00000000000000000000000000000000000000000000000000000000081526004016104bf906115f0565b60405180910390fd5b8060020160009054906101000a900473ffffffffffffffffffffffffffffffffffffffff1673ffffffffffffffffffffffffffffffffffffffff166108fc82600101549081150290604051600060405180830381858888f19350505050158015610536573d6000803e3d6000fd5b5060018160020160146101000a81548160ff0219169083151502179055505050565b600680546105659061163f565b80601f01602080910402602001604051908101604052809291908181526020018280546105919061163f565b80156105de5780601f106105b3576101008083540402835291602001916105de565b820191906000526020600020905b8154815290600101906020018083116105c157829003601f168201915b505050505081565b60046020528060005260406000206000915054906101000a900460ff1681565b60008054905090565b606080606060008060008060008060066007600860095460035447600054600554600260009054906101000a900473ffffffffffffffffffffffffffffffffffffffff1688805461065f9061163f565b80601f016020809104026020016040519081016040528092919081815260200182805461068b9061163f565b80156106d85780601f106106ad576101008083540402835291602001916106d8565b820191906000526020600020905b8154815290600101906020018083116106bb57829003601f168201915b505050505098508780546106eb9061163f565b80601f01602080910402602001604051908101604052809291908181526020018280546107179061163f565b80156107645780601f1061073957610100808354040283529160200191610764565b820191906000526020600020905b81548152906001019060200180831161074757829003601f168201915b505050505097508680546107779061163f565b80601f01602080910402602001604051908101604052809291908181526020018280546107a39061163f565b80156107f05780601f106107c5576101008083540402835291602001916107f0565b820191906000526020600020905b8154815290600101906020018083116107d357829003601f168201915b50505050509650985098509850985098509850985098509850909192939495969798565b600260009054906101000a900473ffffffffffffffffffffffffffffffffffffffff1681565b600880546108479061163f565b80601f01602080910402602001604051908101604052809291908181526020018280546108739061163f565b80156108c05780601f10610895576101008083540402835291602001916108c0565b820191906000526020600020905b8154815290600101906020018083116108a357829003601f168201915b505050505081565b600780546108d59061163f565b80601f01602080910402602001604051908101604052809291908181526020018280546109019061163f565b801561094e5780601f106109235761010080835404028352916020019161094e565b820191906000526020600020905b81548152906001019060200180831161093157829003601f168201915b505050505081565b60055481565b600260009054906101000a900473ffffffffffffffffffffffffffffffffffffffff1673ffffffffffffffffffffffffffffffffffffffff163373ffffffffffffffffffffffffffffffffffffffff16146109ec576040517f08c379a00000000000000000000000000000000000000000000000000000000081526004016109e39061143d565b60405180910390fd5b600460008273ffffffffffffffffffffffffffffffffffffffff1673ffffffffffffffffffffffffffffffffffffffff16815260200190815260200160002060009054906101000a900460ff1615610a79576040517f08c379a0000000000000000000000000000000000000000000000000000000008152600401610a70906116e2565b60405180910390fd5b600060016000806000815480929190610a9190611702565b919050558152602001908152602001600020905083816000019081610ab691906118f6565b50828160010181905550818160020160006101000a81548173ffffffffffffffffffffffffffffffffffffffff021916908373ffffffffffffffffffffffffffffffffffffffff16021790555060008160020160146101000a81548160ff0219169083151502179055506000816003018190555050505050565b60035481565b60606000806000806000548610610b82576040517f08c379a0000000000000000000000000000000000000000000000000000000008152600401610b7990611a14565b60405180910390fd5b60006001600088815260200190815260200160002090508060000181600101548260020160009054906101000a900473ffffffffffffffffffffffffffffffffffffffff168360020160149054906101000a900460ff168460030154848054610bea9061163f565b80601f0160208091040260200160405190810160405280929190818152602001828054610c169061163f565b8015610c635780601f10610c3857610100808354040283529160200191610c63565b820191906000526020600020905b815481529060010190602001808311610c4657829003601f168201915b50505050509450955095509550955095505091939590929450565b60095481565b6003543411610cc8576040517f08c379a0000000000000000000000000000000000000000000000000000000008152600401610cbf90611aa6565b60405180910390fd5b6001600460003373ffffffffffffffffffffffffffffffffffffffff1673ffffffffffffffffffffffffffffffffffffffff16815260200190815260200160002060006101000a81548160ff021916908315150217905550565b600460003373ffffffffffffffffffffffffffffffffffffffff1673ffffffffffffffffffffffffffffffffffffffff16815260200190815260200160002060009054906101000a900460ff16610dae576040517f08c379a0000000000000000000000000000000000000000000000000000000008152600401610da590611b38565b60405180910390fd5b60006001600083815260200190815260200160002090508060040160003373ffffffffffffffffffffffffffffffffffffffff1673ffffffffffffffffffffffffffffffffffffffff16815260200190815260200160002060009054906101000a900460ff1615610e54576040517f08c379a0000000000000000000000000000000000000000000000000000000008152600401610e4b90611bca565b60405180910390fd5b60018160040160003373ffffffffffffffffffffffffffffffffffffffff1673ffffffffffffffffffffffffffffffffffffffff16815260200190815260200160002060006101000a81548160ff021916908315150217905550806003016000815480929190610ec390611702565b91905055505050565b6000604051905090565b600080fd5b600080fd5b6000819050919050565b610ef381610ee0565b8114610efe57600080fd5b50565b600081359050610f1081610eea565b92915050565b600060208284031215610f2c57610f2b610ed6565b5b6000610f3a84828501610f01565b91505092915050565b600081519050919050565b600082825260208201905092915050565b60005b83811015610f7d578082015181840152602081019050610f62565b60008484015250505050565b6000601f19601f8301169050919050565b6000610fa582610f43565b610faf8185610f4e565b9350610fbf818560208601610f5f565b610fc881610f89565b840191505092915050565b60006020820190508181036000830152610fed8184610f9a565b905092915050565b600073ffffffffffffffffffffffffffffffffffffffff82169050919050565b600061102082610ff5565b9050919050565b61103081611015565b811461103b57600080fd5b50565b60008135905061104d81611027565b92915050565b60006020828403121561106957611068610ed6565b5b60006110778482850161103e565b91505092915050565b60008115159050919050565b61109581611080565b82525050565b60006020820190506110b0600083018461108c565b92915050565b6110bf81610ee0565b82525050565b60006020820190506110da60008301846110b6565b92915050565b6110e981611015565b82525050565b600061012082019050818103600083015261110a818c610f9a565b9050818103602083015261111e818b610f9a565b90508181036040830152611132818a610f9a565b905061114160608301896110b6565b61114e60808301886110b6565b61115b60a08301876110b6565b61116860c08301866110b6565b61117560e08301856110b6565b6111836101008301846110e0565b9a9950505050505050505050565b60006020820190506111a660008301846110e0565b92915050565b600080fd5b600080fd5b7f4e487b7100000000000000000000000000000000000000000000000000000000600052604160045260246000fd5b6111ee82610f89565b810181811067ffffffffffffffff8211171561120d5761120c6111b6565b5b80604052505050565b6000611220610ecc565b905061122c82826111e5565b919050565b600067ffffffffffffffff82111561124c5761124b6111b6565b5b61125582610f89565b9050602081019050919050565b82818337600083830152505050565b600061128461127f84611231565b611216565b9050828152602081018484840111156112a05761129f6111b1565b5b6112ab848285611262565b509392505050565b600082601f8301126112c8576112c76111ac565b5b81356112d8848260208601611271565b91505092915050565b6000806000606084860312156112fa576112f9610ed6565b5b600084013567ffffffffffffffff81111561131857611317610edb565b5b611324868287016112b3565b935050602061133586828701610f01565b92505060406113468682870161103e565b9150509250925092565b600061135b82610ff5565b9050919050565b61136b81611350565b82525050565b600060a082019050818103600083015261138b8188610f9a565b905061139a60208301876110b6565b6113a76040830186611362565b6113b4606083018561108c565b6113c160808301846110b6565b9695505050505050565b7f4f6e6c7920746865206d616e616765722063616e2063616c6c2074686973206660008201527f756e6374696f6e2e000000000000000000000000000000000000000000000000602082015250565b6000611427602883610f4e565b9150611432826113cb565b604082019050919050565b600060208201905081810360008301526114568161141a565b9050919050565b7f4e487b7100000000000000000000000000000000000000000000000000000000600052601260045260246000fd5b7f4e487b7100000000000000000000000000000000000000000000000000000000600052601160045260246000fd5b60006114c682610ee0565b91506114d183610ee0565b9250826114e1576114e061145d565b5b828204905092915050565b7f4e6f7420656e6f75676820617070726f76616c7320746f2066696e616c697a6560008201527f20726571756573742e0000000000000000000000000000000000000000000000602082015250565b6000611548602983610f4e565b9150611553826114ec565b604082019050919050565b600060208201905081810360008301526115778161153b565b9050919050565b7f526571756573742068617320616c7265616479206265656e20636f6d706c657460008201527f65642e0000000000000000000000000000000000000000000000000000000000602082015250565b60006115da602383610f4e565b91506115e58261157e565b604082019050919050565b60006020820190508181036000830152611609816115cd565b9050919050565b7f4e487b7100000000000000000000000000000000000000000000000000000000600052602260045260246000fd5b6000600282049050600182168061165757607f821691505b60208210810361166a57611669611610565b5b50919050565b7f526563697069656e742063616e6e6f74206265206120636f6e7472696275746f60008201527f7220746f207468652063616d706169676e2e0000000000000000000000000000602082015250565b60006116cc603283610f4e565b91506116d782611670565b604082019050919050565b600060208201905081810360008301526116fb816116bf565b9050919050565b600061170d82610ee0565b91507fffffffffffffffffffffffffffffffffffffffffffffffffffffffffffffffff820361173f5761173e61148c565b5b600182019050919050565b60008190508160005260206000209050919050565b60006020601f8301049050919050565b600082821b905092915050565b6000600883026117ac7fffffffffffffffffffffffffffffffffffffffffffffffffffffffffffffffff8261176f565b6117b6868361176f565b95508019841693508086168417925050509392505050565b6000819050919050565b60006117f36117ee6117e984610ee0565b6117ce565b610ee0565b9050919050565b6000819050919050565b61180d836117d8565b611821611819826117fa565b84845461177c565b825550505050565b600090565b611836611829565b611841818484611804565b505050565b5b818110156118655761185a60008261182e565b600181019050611847565b5050565b601f8211156118aa5761187b8161174a565b6118848461175f565b81016020851015611893578190505b6118a761189f8561175f565b830182611846565b50505b505050565b600082821c905092915050565b60006118cd600019846008026118af565b1980831691505092915050565b60006118e683836118bc565b9150826002028217905092915050565b6118ff82610f43565b67ffffffffffffffff811115611918576119176111b6565b5b611922825461163f565b61192d828285611869565b600060209050601f831160018114611960576000841561194e578287015190505b61195885826118da565b8655506119c0565b601f19841661196e8661174a565b60005b8281101561199657848901518255600182019150602085019450602081019050611971565b868310156119b357848901516119af601f8916826118bc565b8355505b6001600288020188555050505b505050505050565b7f496e646578206f7574206f662072616e67652e00000000000000000000000000600082015250565b60006119fe601383610f4e565b9150611a09826119c8565b602082019050919050565b60006020820190508181036000830152611a2d816119f1565b9050919050565b7f416d6f756e742073656e742069732062656c6f7720746865206d696e696d756d60008201527f20636f6e747269627574696f6e2072657175697265642e000000000000000000602082015250565b6000611a90603783610f4e565b9150611a9b82611a34565b604082019050919050565b60006020820190508181036000830152611abf81611a83565b9050919050565b7f4f6e6c7920636f6e7472696275746f72732063616e2063616c6c20746869732060008201527f66756e6374696f6e2e0000000000000000000000000000000000000000000000602082015250565b6000611b22602983610f4e565b9150611b2d82611ac6565b604082019050919050565b60006020820190508181036000830152611b5181611b15565b9050919050565b7f436f6e7472696275746f722068617320616c726561647920617070726f76656460008201527f207468697320726571756573742e000000000000000000000000000000000000602082015250565b6000611bb4602e83610f4e565b9150611bbf82611b58565b604082019050919050565b60006020820190508181036000830152611be381611ba7565b905091905056fea264697066735822122040f1f7d26006b8870907571c4796967bf85f36d040d84a2d05f03f3d870a815a64736f6c63430008120033a26469706673582212209d72e9375d81f3ef2f6c0f76988d69e73ee1f41c6c0bb2a993cf80f6d706001264736f6c63430008120033",
  "immutableReferences": {},
  "source": "// SPDX-License-Identifier: MIT\r\n\r\npragma solidity ^0.8.18;\r\n\r\ncontract CampaignFactory {\r\n    address[] public deployedCampaigns;\r\n\r\n    function createCampaign(string memory name, string memory description, string memory url, uint target, uint minimum) public {\r\n        address newCampaign = address(new Campaign(name, description, url, target, minimum, msg.sender));\r\n        deployedCampaigns.push(newCampaign);\r\n    }\r\n\r\n    function getDeployedCampaigns() public view returns (address[] memory) {\r\n        return deployedCampaigns;\r\n    }\r\n}\r\n\r\ncontract Campaign {\r\n    struct Request {\r\n        string description;\r\n        uint256 value;\r\n        address payable recipient;\r\n        bool complete;\r\n        uint256 approvalCount;\r\n        mapping(address => bool) approvals;\r\n    }\r\n\r\n    uint numRequests;\r\n    mapping (uint => Request) requests;\r\n    address public manager;\r\n    uint256 public minimumContribution;\r\n    mapping(address => bool) public approvers;\r\n    uint256 public approversCount;\r\n    string public name;\r\n    string public description;\r\n    string public url;\r\n    uint public target;\r\n\r\n    modifier restricted() {\r\n        require(msg.sender == manager, \"Only the manager can call this function.\");\r\n        _;\r\n    }\r\n\r\n    modifier onlyContributor() {\r\n        require(approvers[msg.sender], \"Only contributors can call this function.\");\r\n        _;\r\n    }\r\n\r\n    constructor(string memory _name, string memory _description, string memory _url, uint _target, uint256 minimum, address creator) {\r\n        name = _name;\r\n        description = _description;\r\n        url = _url;\r\n        target = _target;\r\n        manager = creator;\r\n        minimumContribution = minimum;\r\n    }\r\n\r\n    function contribute() public payable {\r\n        require(msg.value > minimumContribution, \"Amount sent is below the minimum contribution required.\");\r\n\r\n        approvers[msg.sender] = true;\r\n    }\r\n\r\n    function createRequest(string memory _description, uint _value, address _recipient) public restricted {\r\n    require(!approvers[_recipient], \"Recipient cannot be a contributor to the campaign.\");\r\n    Request storage r = requests[numRequests++];\r\n    r.description = _description;\r\n    r.value = _value;\r\n    r.recipient = payable(_recipient);\r\n    r.complete = false;\r\n    r.approvalCount = 0;\r\n}\r\n\r\n\r\n    function getRequest(uint index) public view returns (string memory description, uint256 value, address payable recipient, bool complete, uint256 approvalCount) {\r\n        require(index < numRequests, \"Index out of range.\");\r\n        Request storage r = requests[index];\r\n        return (r.description, r.value, r.recipient, r.complete, r.approvalCount);\r\n    }\r\n\r\n    function approveRequest(uint index) public onlyContributor {\r\n        Request storage request = requests[index];\r\n        require(!request.approvals[msg.sender], \"Contributor has already approved this request.\");\r\n\r\n        request.approvals[msg.sender] = true;\r\n        request.approvalCount++;\r\n    }\r\n\r\n    function finalizeRequest(uint index) public restricted {\r\n        Request storage request = requests[index];\r\n\r\n        require(request.approvalCount > (approversCount / 2), \"Not enough approvals to finalize request.\");\r\n        require(!request.complete, \"Request has already been completed.\");\r\n\r\n        request.recipient.transfer(request.value);\r\n        request.complete = true;\r\n    }\r\n\r\n    function getSummary() public view returns (\r\n        string memory, string memory, string memory, uint, uint256, uint256, uint256, uint256, address\r\n    ) {\r\n        return (\r\n            name,\r\n            description,\r\n            url,\r\n            target,\r\n            minimumContribution,\r\n            address(this).balance,\r\n            numRequests,\r\n            approversCount,\r\n            manager\r\n        );\r\n    }\r\n\r\n    function getRequestsCount() public view returns (uint256) {\r\n    return numRequests;\r\n}}\r\n\r\n",
  "sourcePath": "C:\\Users\\babuv\\Music\\truffle-crowdfund\\contracts\\Campaign.sol",
  "compiler": {
    "name": "solc",
    "version": "0.8.18+commit.87f61d96.Emscripten.clang"
  },
  "schemaVersion": "3.4.13",
  "updatedAt": "2023-05-07T08:09:16.342Z",
  "networkType": "ethereum",
  "devdoc": {
    "kind": "dev",
    "methods": {},
    "version": 1
  },
  "userdoc": {
    "kind": "user",
    "methods": {},
    "version": 1
  }
}